{
  "_format": "hh-sol-artifact-1",
  "contractName": "Marketplace",
  "sourceName": "src/backend/contracts/Marketplace.sol",
  "abi": [
    {
      "inputs": [
        {
          "internalType": "uint256",
          "name": "_feePercent",
          "type": "uint256"
        }
      ],
      "stateMutability": "nonpayable",
      "type": "constructor"
    },
    {
      "anonymous": false,
      "inputs": [
        {
          "indexed": false,
          "internalType": "uint256",
          "name": "itemId",
          "type": "uint256"
        },
        {
          "indexed": true,
          "internalType": "address",
          "name": "nft",
          "type": "address"
        },
        {
          "indexed": false,
          "internalType": "uint256",
          "name": "tokenId",
          "type": "uint256"
        },
        {
          "indexed": false,
          "internalType": "uint256",
          "name": "price",
          "type": "uint256"
        },
        {
          "indexed": true,
          "internalType": "address",
          "name": "seller",
          "type": "address"
        },
        {
          "indexed": true,
          "internalType": "address",
          "name": "buyer",
          "type": "address"
        }
      ],
      "name": "Bought",
      "type": "event"
    },
    {
      "anonymous": false,
      "inputs": [
        {
          "indexed": false,
          "internalType": "uint256",
          "name": "itemId",
          "type": "uint256"
        },
        {
          "indexed": true,
          "internalType": "address",
          "name": "nft",
          "type": "address"
        },
        {
          "indexed": false,
          "internalType": "uint256",
          "name": "tokenId",
          "type": "uint256"
        },
        {
          "indexed": false,
          "internalType": "uint256",
          "name": "price",
          "type": "uint256"
        },
        {
          "indexed": true,
          "internalType": "address",
          "name": "seller",
          "type": "address"
        }
      ],
      "name": "Offered",
      "type": "event"
    },
    {
      "inputs": [
        {
          "internalType": "uint256",
          "name": "",
          "type": "uint256"
        }
      ],
      "name": "Items",
      "outputs": [
        {
          "internalType": "uint256",
          "name": "itemId",
          "type": "uint256"
        },
        {
          "internalType": "contract IERC721",
          "name": "nft",
          "type": "address"
        },
        {
          "internalType": "uint256",
          "name": "tokenId",
          "type": "uint256"
        },
        {
          "internalType": "uint256",
          "name": "price",
          "type": "uint256"
        },
        {
          "internalType": "address payable",
          "name": "seller",
          "type": "address"
        },
        {
          "internalType": "bool",
          "name": "sold",
          "type": "bool"
        }
      ],
      "stateMutability": "view",
      "type": "function"
    },
    {
      "inputs": [],
      "name": "feeAccount",
      "outputs": [
        {
          "internalType": "address payable",
          "name": "",
          "type": "address"
        }
      ],
      "stateMutability": "view",
      "type": "function"
    },
    {
      "inputs": [],
      "name": "feePercent",
      "outputs": [
        {
          "internalType": "uint256",
          "name": "",
          "type": "uint256"
        }
      ],
      "stateMutability": "view",
      "type": "function"
    },
    {
      "inputs": [
        {
          "internalType": "uint256",
          "name": "_itemId",
          "type": "uint256"
        }
      ],
      "name": "getTotalPrice",
      "outputs": [
        {
          "internalType": "uint256",
          "name": "",
          "type": "uint256"
        }
      ],
      "stateMutability": "view",
      "type": "function"
    },
    {
      "inputs": [],
      "name": "itemCount",
      "outputs": [
        {
          "internalType": "uint256",
          "name": "",
          "type": "uint256"
        }
      ],
      "stateMutability": "view",
      "type": "function"
    },
    {
      "inputs": [
        {
          "internalType": "contract IERC721",
          "name": "_nft",
          "type": "address"
        },
        {
          "internalType": "uint256",
          "name": "_tokenId",
          "type": "uint256"
        },
        {
          "internalType": "uint256",
          "name": "_price",
          "type": "uint256"
        }
      ],
      "name": "makeItem",
      "outputs": [],
      "stateMutability": "nonpayable",
      "type": "function"
    },
    {
      "inputs": [
        {
          "internalType": "uint256",
          "name": "_itemId",
          "type": "uint256"
        }
      ],
      "name": "purchaseItem",
      "outputs": [],
      "stateMutability": "payable",
      "type": "function"
    }
  ],
  "bytecode": "0x60c060405234801561001057600080fd5b506040516200121038038062001210833981810160405281019061003491906100b9565b60016000819055503373ffffffffffffffffffffffffffffffffffffffff1660808173ffffffffffffffffffffffffffffffffffffffff16815250508060a08181525050506100e6565b600080fd5b6000819050919050565b61009681610083565b81146100a157600080fd5b50565b6000815190506100b38161008d565b92915050565b6000602082840312156100cf576100ce61007e565b5b60006100dd848285016100a4565b91505092915050565b60805160a0516110f66200011a6000396000818161026f01526102ae015260008181610245015261047701526110f66000f3fe6080604052600436106100705760003560e01c80637fd6f15c1161004e5780637fd6f15c1461010d578063ca7dd37514610138578063d38ea5bf14610175578063fa00afc71461019157610070565b806317b47cc41461007557806365e17c9d146100b75780636bfb0d01146100e2575b600080fd5b34801561008157600080fd5b5061009c600480360381019061009791906109c0565b6101ba565b6040516100ae96959493929190610ab7565b60405180910390f35b3480156100c357600080fd5b506100cc610243565b6040516100d99190610b18565b60405180910390f35b3480156100ee57600080fd5b506100f7610267565b6040516101049190610b33565b60405180910390f35b34801561011957600080fd5b5061012261026d565b60405161012f9190610b33565b60405180910390f35b34801561014457600080fd5b5061015f600480360381019061015a91906109c0565b610291565b60405161016c9190610b33565b60405180910390f35b61018f600480360381019061018a91906109c0565b6102f4565b005b34801561019d57600080fd5b506101b860048036038101906101b39190610b9e565b6106a0565b005b60026020528060005260406000206000915090508060000154908060010160009054906101000a900473ffffffffffffffffffffffffffffffffffffffff16908060020154908060030154908060040160009054906101000a900473ffffffffffffffffffffffffffffffffffffffff16908060040160149054906101000a900460ff16905086565b7f000000000000000000000000000000000000000000000000000000000000000081565b60015481565b7f000000000000000000000000000000000000000000000000000000000000000081565b6000600260008381526020019081526020016000206003015460647f00000000000000000000000000000000000000000000000000000000000000006102d79190610c4f565b60646102e39190610c80565b6102ed9190610cb4565b9050919050565b6102fc61092c565b600061030782610291565b9050600060026000848152602001908152602001600020905060008311801561033257506001548311155b610371576040517f08c379a000000000000000000000000000000000000000000000000000000000815260040161036890610d53565b60405180910390fd5b813410156103b4576040517f08c379a00000000000000000000000000000000000000000000000000000000081526004016103ab90610de5565b60405180910390fd5b8060040160149054906101000a900460ff1615610406576040517f08c379a00000000000000000000000000000000000000000000000000000000081526004016103fd90610e51565b60405180910390fd5b8060040160009054906101000a900473ffffffffffffffffffffffffffffffffffffffff1673ffffffffffffffffffffffffffffffffffffffff166108fc82600301549081150290604051600060405180830381858888f19350505050158015610474573d6000803e3d6000fd5b507f000000000000000000000000000000000000000000000000000000000000000073ffffffffffffffffffffffffffffffffffffffff166108fc8260030154846104bf9190610e71565b9081150290604051600060405180830381858888f193505050501580156104ea573d6000803e3d6000fd5b5060018160040160146101000a81548160ff0219169083151502179055508060010160009054906101000a900473ffffffffffffffffffffffffffffffffffffffff1673ffffffffffffffffffffffffffffffffffffffff166323b872dd8260040160009054906101000a900473ffffffffffffffffffffffffffffffffffffffff163384600201546040518463ffffffff1660e01b815260040161059193929190610ed5565b600060405180830381600087803b1580156105ab57600080fd5b505af11580156105bf573d6000803e3d6000fd5b505050503373ffffffffffffffffffffffffffffffffffffffff168160040160009054906101000a900473ffffffffffffffffffffffffffffffffffffffff1673ffffffffffffffffffffffffffffffffffffffff168260010160009054906101000a900473ffffffffffffffffffffffffffffffffffffffff1673ffffffffffffffffffffffffffffffffffffffff167f8b4c9c8a607d67b321582dd8461041b1dc2ceeca70c8b7f37f8e02095cf2e76d868560020154866003015460405161068b93929190610f0c565b60405180910390a4505061069d61097b565b50565b6106a861092c565b600081116106eb576040517f08c379a00000000000000000000000000000000000000000000000000000000081526004016106e290610fb5565b60405180910390fd5b600160008154809291906106fe90610fd5565b91905055508273ffffffffffffffffffffffffffffffffffffffff166323b872dd3330856040518463ffffffff1660e01b81526004016107409392919061101d565b600060405180830381600087803b15801561075a57600080fd5b505af115801561076e573d6000803e3d6000fd5b505050506040518060c0016040528060015481526020018473ffffffffffffffffffffffffffffffffffffffff1681526020018381526020018281526020013373ffffffffffffffffffffffffffffffffffffffff168152602001600015158152506002600060015481526020019081526020016000206000820151816000015560208201518160010160006101000a81548173ffffffffffffffffffffffffffffffffffffffff021916908373ffffffffffffffffffffffffffffffffffffffff160217905550604082015181600201556060820151816003015560808201518160040160006101000a81548173ffffffffffffffffffffffffffffffffffffffff021916908373ffffffffffffffffffffffffffffffffffffffff16021790555060a08201518160040160146101000a81548160ff0219169083151502179055509050503373ffffffffffffffffffffffffffffffffffffffff168373ffffffffffffffffffffffffffffffffffffffff167f655a0cf9c8db81512be9a76dc1c5ae5380b8816ce6ad659cd61b715e2999d59a600154858560405161091793929190610f0c565b60405180910390a361092761097b565b505050565b600260005403610971576040517f08c379a0000000000000000000000000000000000000000000000000000000008152600401610968906110a0565b60405180910390fd5b6002600081905550565b6001600081905550565b600080fd5b6000819050919050565b61099d8161098a565b81146109a857600080fd5b50565b6000813590506109ba81610994565b92915050565b6000602082840312156109d6576109d5610985565b5b60006109e4848285016109ab565b91505092915050565b6109f68161098a565b82525050565b600073ffffffffffffffffffffffffffffffffffffffff82169050919050565b6000819050919050565b6000610a41610a3c610a37846109fc565b610a1c565b6109fc565b9050919050565b6000610a5382610a26565b9050919050565b6000610a6582610a48565b9050919050565b610a7581610a5a565b82525050565b6000610a86826109fc565b9050919050565b610a9681610a7b565b82525050565b60008115159050919050565b610ab181610a9c565b82525050565b600060c082019050610acc60008301896109ed565b610ad96020830188610a6c565b610ae660408301876109ed565b610af360608301866109ed565b610b006080830185610a8d565b610b0d60a0830184610aa8565b979650505050505050565b6000602082019050610b2d6000830184610a8d565b92915050565b6000602082019050610b4860008301846109ed565b92915050565b6000610b59826109fc565b9050919050565b6000610b6b82610b4e565b9050919050565b610b7b81610b60565b8114610b8657600080fd5b50565b600081359050610b9881610b72565b92915050565b600080600060608486031215610bb757610bb6610985565b5b6000610bc586828701610b89565b9350506020610bd6868287016109ab565b9250506040610be7868287016109ab565b9150509250925092565b7f4e487b7100000000000000000000000000000000000000000000000000000000600052601260045260246000fd5b7f4e487b7100000000000000000000000000000000000000000000000000000000600052601160045260246000fd5b6000610c5a8261098a565b9150610c658361098a565b925082610c7557610c74610bf1565b5b828204905092915050565b6000610c8b8261098a565b9150610c968361098a565b9250828201905080821115610cae57610cad610c20565b5b92915050565b6000610cbf8261098a565b9150610cca8361098a565b9250828202610cd88161098a565b91508282048414831517610cef57610cee610c20565b5b5092915050565b600082825260208201905092915050565b7f4974656d20646f65736e27742065786973740000000000000000000000000000600082015250565b6000610d3d601283610cf6565b9150610d4882610d07565b602082019050919050565b60006020820190508181036000830152610d6c81610d30565b9050919050565b7f4e6f7420656e6f75676820657468657220746f20636f7665722074686520747260008201527f616e73616374696f6e20636f7374000000000000000000000000000000000000602082015250565b6000610dcf602e83610cf6565b9150610dda82610d73565b604082019050919050565b60006020820190508181036000830152610dfe81610dc2565b9050919050565b7f4974656d20616c726561647920736f6c64000000000000000000000000000000600082015250565b6000610e3b601183610cf6565b9150610e4682610e05565b602082019050919050565b60006020820190508181036000830152610e6a81610e2e565b9050919050565b6000610e7c8261098a565b9150610e878361098a565b9250828203905081811115610e9f57610e9e610c20565b5b92915050565b6000610eb082610a48565b9050919050565b610ec081610ea5565b82525050565b610ecf81610b4e565b82525050565b6000606082019050610eea6000830186610eb7565b610ef76020830185610ec6565b610f0460408301846109ed565b949350505050565b6000606082019050610f2160008301866109ed565b610f2e60208301856109ed565b610f3b60408301846109ed565b949350505050565b7f4974656d2070726963652068617320746f20626520677265617465722074686160008201527f6e207a65726f0000000000000000000000000000000000000000000000000000602082015250565b6000610f9f602683610cf6565b9150610faa82610f43565b604082019050919050565b60006020820190508181036000830152610fce81610f92565b9050919050565b6000610fe08261098a565b91507fffffffffffffffffffffffffffffffffffffffffffffffffffffffffffffffff820361101257611011610c20565b5b600182019050919050565b60006060820190506110326000830186610ec6565b61103f6020830185610ec6565b61104c60408301846109ed565b949350505050565b7f5265656e7472616e637947756172643a207265656e7472616e742063616c6c00600082015250565b600061108a601f83610cf6565b915061109582611054565b602082019050919050565b600060208201905081810360008301526110b98161107d565b905091905056fea26469706673582212204983f158a264ed951ff34ff6f86a4d30daaebc52b7a48d12029dfb93a6f3055164736f6c63430008110033",
  "linkReferences": {},
  "deployedLinkReferences": {}
}